{
  "contractName": "MimiriumExchange",
  "abi": [
    {
      "constant": true,
      "inputs": [],
      "name": "rate",
      "outputs": [
        {
          "name": "",
          "type": "uint256"
        }
      ],
      "payable": false,
      "stateMutability": "view",
      "type": "function"
    },
    {
      "constant": false,
      "inputs": [],
      "name": "renounceOwnership",
      "outputs": [],
      "payable": false,
      "stateMutability": "nonpayable",
      "type": "function"
    },
    {
      "constant": true,
      "inputs": [],
      "name": "owner",
      "outputs": [
        {
          "name": "",
          "type": "address"
        }
      ],
      "payable": false,
      "stateMutability": "view",
      "type": "function"
    },
    {
      "constant": true,
      "inputs": [],
      "name": "isOwner",
      "outputs": [
        {
          "name": "",
          "type": "bool"
        }
      ],
      "payable": false,
      "stateMutability": "view",
      "type": "function"
    },
    {
      "constant": false,
      "inputs": [
        {
          "name": "newOwner",
          "type": "address"
        }
      ],
      "name": "transferOwnership",
      "outputs": [],
      "payable": false,
      "stateMutability": "nonpayable",
      "type": "function"
    },
    {
      "constant": true,
      "inputs": [],
      "name": "token",
      "outputs": [
        {
          "name": "",
          "type": "address"
        }
      ],
      "payable": false,
      "stateMutability": "view",
      "type": "function"
    },
    {
      "inputs": [
        {
          "name": "_token",
          "type": "address"
        }
      ],
      "payable": false,
      "stateMutability": "nonpayable",
      "type": "constructor"
    },
    {
      "payable": true,
      "stateMutability": "payable",
      "type": "fallback"
    },
    {
      "anonymous": false,
      "inputs": [
        {
          "indexed": false,
          "name": "oldRate",
          "type": "uint256"
        },
        {
          "indexed": false,
          "name": "newRate",
          "type": "uint256"
        }
      ],
      "name": "RateChanged",
      "type": "event"
    },
    {
      "anonymous": false,
      "inputs": [
        {
          "indexed": false,
          "name": "mimiriums",
          "type": "uint256"
        },
        {
          "indexed": false,
          "name": "ethers",
          "type": "uint256"
        },
        {
          "indexed": false,
          "name": "rate",
          "type": "uint256"
        }
      ],
      "name": "MimiriumsPurchased",
      "type": "event"
    },
    {
      "anonymous": false,
      "inputs": [
        {
          "indexed": false,
          "name": "mimiriums",
          "type": "uint256"
        },
        {
          "indexed": false,
          "name": "ethers",
          "type": "uint256"
        },
        {
          "indexed": false,
          "name": "rate",
          "type": "uint256"
        }
      ],
      "name": "MimiriumsSold",
      "type": "event"
    },
    {
      "anonymous": false,
      "inputs": [
        {
          "indexed": true,
          "name": "previousOwner",
          "type": "address"
        },
        {
          "indexed": true,
          "name": "newOwner",
          "type": "address"
        }
      ],
      "name": "OwnershipTransferred",
      "type": "event"
    },
    {
      "constant": false,
      "inputs": [
        {
          "name": "_newRate",
          "type": "uint256"
        }
      ],
      "name": "setRate",
      "outputs": [],
      "payable": false,
      "stateMutability": "nonpayable",
      "type": "function"
    },
    {
      "constant": false,
      "inputs": [],
      "name": "buy",
      "outputs": [],
      "payable": true,
      "stateMutability": "payable",
      "type": "function"
    },
    {
      "constant": false,
      "inputs": [
        {
          "name": "_mimirAmount",
          "type": "uint256"
        }
      ],
      "name": "sell",
      "outputs": [],
      "payable": false,
      "stateMutability": "nonpayable",
      "type": "function"
    }
  ],
  "bytecode": "0x608060405234801561001057600080fd5b50604051602080610fc883398101806040528101908080519060200190929190505050336000806101000a81548173ffffffffffffffffffffffffffffffffffffffff021916908373ffffffffffffffffffffffffffffffffffffffff1602179055506000809054906101000a900473ffffffffffffffffffffffffffffffffffffffff1673ffffffffffffffffffffffffffffffffffffffff16600073ffffffffffffffffffffffffffffffffffffffff167f8be0079c531659141344cd1fd0a4f28419497f9722a3daafe3b4186f6b6457e060405160405180910390a380600160006101000a81548173ffffffffffffffffffffffffffffffffffffffff021916908373ffffffffffffffffffffffffffffffffffffffff160217905550600160028190555050610e80806101486000396000f300608060405260043610610099576000357c0100000000000000000000000000000000000000000000000000000000900463ffffffff1680632c4e722e146100a557806334fcf437146100d0578063715018a6146100fd5780638da5cb5b146101145780638f32d59b1461016b578063a6f2ae3a1461019a578063e4849b32146101a4578063f2fde38b146101d1578063fc0c546a14610214575b6100a3333461026b565b005b3480156100b157600080fd5b506100ba61044a565b6040518082815260200191505060405180910390f35b3480156100dc57600080fd5b506100fb60048036038101908080359060200190929190505050610450565b005b34801561010957600080fd5b50610112610526565b005b34801561012057600080fd5b506101296105f8565b604051808273ffffffffffffffffffffffffffffffffffffffff1673ffffffffffffffffffffffffffffffffffffffff16815260200191505060405180910390f35b34801561017757600080fd5b50610180610621565b604051808215151515815260200191505060405180910390f35b6101a2610678565b005b3480156101b057600080fd5b506101cf60048036038101908080359060200190929190505050610684565b005b3480156101dd57600080fd5b50610212600480360381019080803573ffffffffffffffffffffffffffffffffffffffff169060200190929190505050610691565b005b34801561022057600080fd5b506102296106b0565b604051808273ffffffffffffffffffffffffffffffffffffffff1673ffffffffffffffffffffffffffffffffffffffff16815260200191505060405180910390f35b600080821115156102e4576040517f08c379a00000000000000000000000000000000000000000000000000000000081526004018080602001828103825260158152602001807f4769766520736f6d65206361736820706c65617365000000000000000000000081525060200191505060405180910390fd5b6102f9600254836106d690919063ffffffff16565b9050600160009054906101000a900473ffffffffffffffffffffffffffffffffffffffff1673ffffffffffffffffffffffffffffffffffffffff166340c10f1984836040518363ffffffff167c0100000000000000000000000000000000000000000000000000000000028152600401808373ffffffffffffffffffffffffffffffffffffffff1673ffffffffffffffffffffffffffffffffffffffff16815260200182815260200192505050602060405180830381600087803b1580156103c057600080fd5b505af11580156103d4573d6000803e3d6000fd5b505050506040513d60208110156103ea57600080fd5b8101908080519060200190929190505050507f9bc3e126ef314e401ac29371b2a34a6a2ab2bea1821ce46061beff0de006c5ee818360025460405180848152602001838152602001828152602001935050505060405180910390a1505050565b60025481565b610458610621565b151561046357600080fd5b6000811115156104db576040517f08c379a000000000000000000000000000000000000000000000000000000000815260040180806020018281038252601b8152602001807f52617465206d7573742062652067726561746564207468616e2030000000000081525060200191505060405180910390fd5b7f4ac9052a820bf4f8c02d7588587cae835573b5b99ea7ad4ca002f17f319f718660025482604051808381526020018281526020019250505060405180910390a18060028190555050565b61052e610621565b151561053957600080fd5b600073ffffffffffffffffffffffffffffffffffffffff166000809054906101000a900473ffffffffffffffffffffffffffffffffffffffff1673ffffffffffffffffffffffffffffffffffffffff167f8be0079c531659141344cd1fd0a4f28419497f9722a3daafe3b4186f6b6457e060405160405180910390a360008060006101000a81548173ffffffffffffffffffffffffffffffffffffffff021916908373ffffffffffffffffffffffffffffffffffffffff160217905550565b60008060009054906101000a900473ffffffffffffffffffffffffffffffffffffffff16905090565b60008060009054906101000a900473ffffffffffffffffffffffffffffffffffffffff1673ffffffffffffffffffffffffffffffffffffffff163373ffffffffffffffffffffffffffffffffffffffff1614905090565b610682333461026b565b565b61068e3382610714565b50565b610699610621565b15156106a457600080fd5b6106ad81610d30565b50565b600160009054906101000a900473ffffffffffffffffffffffffffffffffffffffff1681565b60008060008414156106eb576000915061070d565b82840290508284828115156106fc57fe5b0414151561070957600080fd5b8091505b5092915050565b60008073ffffffffffffffffffffffffffffffffffffffff168373ffffffffffffffffffffffffffffffffffffffff16141515156107ba576040517f08c379a00000000000000000000000000000000000000000000000000000000081526004018080602001828103825260188152602001807f4e6f6e206e756c6c20616464726573732072657175697265000000000000000081525060200191505060405180910390fd5b6107cf60025483610e2a90919063ffffffff16565b905081600160009054906101000a900473ffffffffffffffffffffffffffffffffffffffff1673ffffffffffffffffffffffffffffffffffffffff166370a08231856040518263ffffffff167c0100000000000000000000000000000000000000000000000000000000028152600401808273ffffffffffffffffffffffffffffffffffffffff1673ffffffffffffffffffffffffffffffffffffffff168152602001915050602060405180830381600087803b15801561088f57600080fd5b505af11580156108a3573d6000803e3d6000fd5b505050506040513d60208110156108b957600080fd5b810190808051906020019092919050505010151515610966576040517f08c379a00000000000000000000000000000000000000000000000000000000081526004018080602001828103825260278152602001807f596f7520646f6e27742068617665207375636820616d6f756e74206f66206d6981526020017f6d697269756d730000000000000000000000000000000000000000000000000081525060400191505060405180910390fd5b81600160009054906101000a900473ffffffffffffffffffffffffffffffffffffffff1673ffffffffffffffffffffffffffffffffffffffff1663dd62ed3e85306040518363ffffffff167c0100000000000000000000000000000000000000000000000000000000028152600401808373ffffffffffffffffffffffffffffffffffffffff1673ffffffffffffffffffffffffffffffffffffffff1681526020018273ffffffffffffffffffffffffffffffffffffffff1673ffffffffffffffffffffffffffffffffffffffff16815260200192505050602060405180830381600087803b158015610a5857600080fd5b505af1158015610a6c573d6000803e3d6000fd5b505050506040513d6020811015610a8257600080fd5b810190808051906020019092919050505010151515610b2f576040517f08c379a00000000000000000000000000000000000000000000000000000000081526004018080602001828103825260368152602001807f596f75206e65656420746f20617070726f76652074686520636f6e747261637481526020017f20666f72207468697320616d6f756e742066697273740000000000000000000081525060400191505060405180910390fd5b803073ffffffffffffffffffffffffffffffffffffffff163110151515610bbe576040517f08c379a00000000000000000000000000000000000000000000000000000000081526004018080602001828103825260128152602001807f496e73756666696369656e742066756e6473000000000000000000000000000081525060200191505060405180910390fd5b600160009054906101000a900473ffffffffffffffffffffffffffffffffffffffff1673ffffffffffffffffffffffffffffffffffffffff166379cc679084846040518363ffffffff167c0100000000000000000000000000000000000000000000000000000000028152600401808373ffffffffffffffffffffffffffffffffffffffff1673ffffffffffffffffffffffffffffffffffffffff16815260200182815260200192505050600060405180830381600087803b158015610c8357600080fd5b505af1158015610c97573d6000803e3d6000fd5b505050508273ffffffffffffffffffffffffffffffffffffffff166108fc829081150290604051600060405180830381858888f19350505050158015610ce1573d6000803e3d6000fd5b507ffada1f42886933949c2ebedd6ba5b5605686cbb72b5295aec475af4dc3da1778828260025460405180848152602001838152602001828152602001935050505060405180910390a1505050565b600073ffffffffffffffffffffffffffffffffffffffff168173ffffffffffffffffffffffffffffffffffffffff1614151515610d6c57600080fd5b8073ffffffffffffffffffffffffffffffffffffffff166000809054906101000a900473ffffffffffffffffffffffffffffffffffffffff1673ffffffffffffffffffffffffffffffffffffffff167f8be0079c531659141344cd1fd0a4f28419497f9722a3daafe3b4186f6b6457e060405160405180910390a3806000806101000a81548173ffffffffffffffffffffffffffffffffffffffff021916908373ffffffffffffffffffffffffffffffffffffffff16021790555050565b600080600083111515610e3c57600080fd5b8284811515610e4757fe5b04905080915050929150505600a165627a7a723058205b1d3262d4fec6b405902f079df72a0ccb1f27aa1736d063384ec34e42e5f5530029",
  "source": "pragma solidity ^0.4.24;\r\n\r\nimport \"./MimiriumToken.sol\";\r\nimport \"openzeppelin-solidity/contracts/ownership/Ownable.sol\";\r\n\r\ncontract MimiriumExchange is Ownable {\r\n    using SafeMath for uint256;\r\n\r\n    MimiriumToken public token;\r\n    uint256 public rate;\r\n\r\n    event RateChanged(uint256 oldRate, uint256 newRate);\r\n    event MimiriumsPurchased(uint256 mimiriums, uint256 ethers, uint256 rate);\r\n    event MimiriumsSold(uint256 mimiriums, uint256 ethers, uint256 rate);\r\n\r\n    constructor(MimiriumToken _token) public {\r\n        token = _token;\r\n        rate = 1;\r\n    }\r\n\r\n    function setRate(uint256 _newRate) public onlyOwner {\r\n        require(_newRate > 0, \"Rate must be greated than 0\");\r\n        emit RateChanged(rate, _newRate);\r\n        rate = _newRate;\r\n    }\r\n\r\n    function () public payable {\r\n        _buy(msg.sender, msg.value);\r\n    }\r\n\r\n    function buy() public payable {\r\n        _buy(msg.sender, msg.value);\r\n    }\r\n\r\n    function sell(uint256 _mimirAmount) public {\r\n        _sell(msg.sender, _mimirAmount);\r\n    }\r\n\r\n    function _buy(address _purchaser, uint256 _weiAmount) internal {\r\n        require(_weiAmount > 0, \"Give some cash please\");\r\n        uint256 mimirAmount = _weiAmount.mul(rate);\r\n        token.mint(_purchaser, mimirAmount);\r\n        emit MimiriumsPurchased(mimirAmount, _weiAmount, rate);\r\n    }\r\n\r\n    function _sell(address _seller, uint256 _mimirAmount) internal {\r\n        require(_seller != address(0), \"Non null address require\");\r\n        uint256 weiAmount = _mimirAmount.div(rate);\r\n        require (token.balanceOf(_seller) >= _mimirAmount, \"You don't have such amount of mimiriums\");\r\n        require (token.allowance(_seller, address(this)) >= _mimirAmount, \"You need to approve the contract for this amount first\");\r\n        require (address(this).balance >= weiAmount, \"Insufficient funds\");\r\n        token.burnFrom(_seller, _mimirAmount);\r\n        _seller.transfer(weiAmount);\r\n        emit MimiriumsSold(_mimirAmount, weiAmount, rate);\r\n    }\r\n}",
  "sourcePath": "C:\\Projects\\mimirium\\protocol\\mimirium-contracts\\contracts\\MimiriumExchange.sol",
  "compiler": {
    "name": "solc",
    "version": "0.4.24+commit.e67f0147.Emscripten.clang"
  },
  "schemaVersion": "2.0.1",
  "updatedAt": "2018-11-20T14:48:49.433Z"
}