{
  "contractName": "NodeRegister",
  "abi": [
    {
      "constant": false,
      "inputs": [],
      "name": "renounceOwnership",
      "outputs": [],
      "payable": false,
      "stateMutability": "nonpayable",
      "type": "function"
    },
    {
      "constant": true,
      "inputs": [],
      "name": "owner",
      "outputs": [
        {
          "name": "",
          "type": "address"
        }
      ],
      "payable": false,
      "stateMutability": "view",
      "type": "function"
    },
    {
      "constant": true,
      "inputs": [],
      "name": "isOwner",
      "outputs": [
        {
          "name": "",
          "type": "bool"
        }
      ],
      "payable": false,
      "stateMutability": "view",
      "type": "function"
    },
    {
      "constant": false,
      "inputs": [
        {
          "name": "newOwner",
          "type": "address"
        }
      ],
      "name": "transferOwnership",
      "outputs": [],
      "payable": false,
      "stateMutability": "nonpayable",
      "type": "function"
    },
    {
      "inputs": [],
      "payable": false,
      "stateMutability": "nonpayable",
      "type": "constructor"
    },
    {
      "anonymous": false,
      "inputs": [
        {
          "components": [
            {
              "name": "id",
              "type": "address"
            },
            {
              "name": "name",
              "type": "string"
            },
            {
              "name": "url",
              "type": "string"
            },
            {
              "name": "registrationTime",
              "type": "uint256"
            }
          ],
          "indexed": false,
          "name": "node",
          "type": "tuple"
        }
      ],
      "name": "NodeRegistered",
      "type": "event"
    },
    {
      "anonymous": false,
      "inputs": [
        {
          "components": [
            {
              "name": "id",
              "type": "address"
            },
            {
              "name": "name",
              "type": "string"
            },
            {
              "name": "url",
              "type": "string"
            },
            {
              "name": "registrationTime",
              "type": "uint256"
            }
          ],
          "indexed": false,
          "name": "node",
          "type": "tuple"
        }
      ],
      "name": "NodeRevoked",
      "type": "event"
    },
    {
      "anonymous": false,
      "inputs": [
        {
          "indexed": true,
          "name": "previousOwner",
          "type": "address"
        },
        {
          "indexed": true,
          "name": "newOwner",
          "type": "address"
        }
      ],
      "name": "OwnershipTransferred",
      "type": "event"
    },
    {
      "constant": false,
      "inputs": [
        {
          "name": "_id",
          "type": "address"
        }
      ],
      "name": "whitelistNode",
      "outputs": [],
      "payable": false,
      "stateMutability": "nonpayable",
      "type": "function"
    },
    {
      "constant": false,
      "inputs": [
        {
          "name": "_name",
          "type": "string"
        },
        {
          "name": "_url",
          "type": "string"
        }
      ],
      "name": "registerNode",
      "outputs": [],
      "payable": false,
      "stateMutability": "nonpayable",
      "type": "function"
    },
    {
      "constant": true,
      "inputs": [
        {
          "name": "_id",
          "type": "address"
        }
      ],
      "name": "getNode",
      "outputs": [
        {
          "components": [
            {
              "name": "id",
              "type": "address"
            },
            {
              "name": "name",
              "type": "string"
            },
            {
              "name": "url",
              "type": "string"
            },
            {
              "name": "registrationTime",
              "type": "uint256"
            }
          ],
          "name": "",
          "type": "tuple"
        }
      ],
      "payable": false,
      "stateMutability": "view",
      "type": "function"
    },
    {
      "constant": true,
      "inputs": [],
      "name": "getActiveNodes",
      "outputs": [
        {
          "components": [
            {
              "name": "id",
              "type": "address"
            },
            {
              "name": "name",
              "type": "string"
            },
            {
              "name": "url",
              "type": "string"
            },
            {
              "name": "registrationTime",
              "type": "uint256"
            }
          ],
          "name": "",
          "type": "tuple[]"
        }
      ],
      "payable": false,
      "stateMutability": "view",
      "type": "function"
    }
  ],
  "bytecode": "0x608060405234801561001057600080fd5b50336000806101000a81548173ffffffffffffffffffffffffffffffffffffffff021916908373ffffffffffffffffffffffffffffffffffffffff1602179055506000809054906101000a900473ffffffffffffffffffffffffffffffffffffffff1673ffffffffffffffffffffffffffffffffffffffff16600073ffffffffffffffffffffffffffffffffffffffff167f8be0079c531659141344cd1fd0a4f28419497f9722a3daafe3b4186f6b6457e060405160405180910390a36110e8806100dc6000396000f30060806040526004361061008e576000357c0100000000000000000000000000000000000000000000000000000000900463ffffffff1680636b51e91914610093578063715018a6146100be5780638da5cb5b146100d55780638f32d59b146101005780639d2090481461012b578063a133f77f14610168578063d398352414610191578063f2fde38b146101ba575b600080fd5b34801561009f57600080fd5b506100a86101e3565b6040516100b59190610efd565b60405180910390f35b3480156100ca57600080fd5b506100d36103e7565b005b3480156100e157600080fd5b506100ea6104b9565b6040516100f79190610ee2565b60405180910390f35b34801561010c57600080fd5b506101156104e2565b6040516101229190610f1f565b60405180910390f35b34801561013757600080fd5b50610152600480360361014d9190810190610c71565b610539565b60405161015f9190610f5a565b60405180910390f35b34801561017457600080fd5b5061018f600480360361018a9190810190610c71565b61080a565b005b34801561019d57600080fd5b506101b860048036036101b39190810190610c9a565b610820565b005b3480156101c657600080fd5b506101e160048036036101dc9190810190610c71565b610a0a565b005b60606002805480602002602001604051908101604052809291908181526020016000905b828210156103de5783829060005260206000209060040201608060405190810160405290816000820160009054906101000a900473ffffffffffffffffffffffffffffffffffffffff1673ffffffffffffffffffffffffffffffffffffffff1673ffffffffffffffffffffffffffffffffffffffff168152602001600182018054600181600116156101000203166002900480601f01602080910402602001604051908101604052809291908181526020018280546001816001161561010002031660029004801561031a5780601f106102ef5761010080835404028352916020019161031a565b820191906000526020600020905b8154815290600101906020018083116102fd57829003601f168201915b50505050508152602001600282018054600181600116156101000203166002900480601f0160208091040260200160405190810160405280929190818152602001828054600181600116156101000203166002900480156103bc5780601f10610391576101008083540402835291602001916103bc565b820191906000526020600020905b81548152906001019060200180831161039f57829003601f168201915b5050505050815260200160038201548152505081526020019060010190610207565b50505050905090565b6103ef6104e2565b15156103fa57600080fd5b600073ffffffffffffffffffffffffffffffffffffffff166000809054906101000a900473ffffffffffffffffffffffffffffffffffffffff1673ffffffffffffffffffffffffffffffffffffffff167f8be0079c531659141344cd1fd0a4f28419497f9722a3daafe3b4186f6b6457e060405160405180910390a360008060006101000a81548173ffffffffffffffffffffffffffffffffffffffff021916908373ffffffffffffffffffffffffffffffffffffffff160217905550565b60008060009054906101000a900473ffffffffffffffffffffffffffffffffffffffff16905090565b60008060009054906101000a900473ffffffffffffffffffffffffffffffffffffffff1673ffffffffffffffffffffffffffffffffffffffff163373ffffffffffffffffffffffffffffffffffffffff1614905090565b610541610b23565b8173ffffffffffffffffffffffffffffffffffffffff16600160008473ffffffffffffffffffffffffffffffffffffffff1673ffffffffffffffffffffffffffffffffffffffff16815260200190815260200160002060000160009054906101000a900473ffffffffffffffffffffffffffffffffffffffff1673ffffffffffffffffffffffffffffffffffffffff1614151515610614576040517f08c379a000000000000000000000000000000000000000000000000000000000815260040161060b90610f3a565b60405180910390fd5b600160008373ffffffffffffffffffffffffffffffffffffffff1673ffffffffffffffffffffffffffffffffffffffff168152602001908152602001600020608060405190810160405290816000820160009054906101000a900473ffffffffffffffffffffffffffffffffffffffff1673ffffffffffffffffffffffffffffffffffffffff1673ffffffffffffffffffffffffffffffffffffffff168152602001600182018054600181600116156101000203166002900480601f01602080910402602001604051908101604052809291908181526020018280546001816001161561010002031660029004801561074e5780601f106107235761010080835404028352916020019161074e565b820191906000526020600020905b81548152906001019060200180831161073157829003601f168201915b50505050508152602001600282018054600181600116156101000203166002900480601f0160208091040260200160405190810160405280929190818152602001828054600181600116156101000203166002900480156107f05780601f106107c5576101008083540402835291602001916107f0565b820191906000526020600020905b8154815290600101906020018083116107d357829003601f168201915b505050505081526020016003820154815250509050919050565b6108126104e2565b151561081d57600080fd5b50565b600061082a610b23565b6108326104e2565b151561083d57600080fd5b3391506080604051908101604052808373ffffffffffffffffffffffffffffffffffffffff16815260200185815260200184815260200142815250905080600160008473ffffffffffffffffffffffffffffffffffffffff1673ffffffffffffffffffffffffffffffffffffffff16815260200190815260200160002060008201518160000160006101000a81548173ffffffffffffffffffffffffffffffffffffffff021916908373ffffffffffffffffffffffffffffffffffffffff160217905550602082015181600101908051906020019061091d929190610b62565b50604082015181600201908051906020019061093a929190610b62565b50606082015181600301559050506002819080600181540180825580915050906001820390600052602060002090600402016000909192909190915060008201518160000160006101000a81548173ffffffffffffffffffffffffffffffffffffffff021916908373ffffffffffffffffffffffffffffffffffffffff16021790555060208201518160010190805190602001906109d9929190610b62565b5060408201518160020190805190602001906109f6929190610b62565b506060820151816003015550505050505050565b610a126104e2565b1515610a1d57600080fd5b610a2681610a29565b50565b600073ffffffffffffffffffffffffffffffffffffffff168173ffffffffffffffffffffffffffffffffffffffff1614151515610a6557600080fd5b8073ffffffffffffffffffffffffffffffffffffffff166000809054906101000a900473ffffffffffffffffffffffffffffffffffffffff1673ffffffffffffffffffffffffffffffffffffffff167f8be0079c531659141344cd1fd0a4f28419497f9722a3daafe3b4186f6b6457e060405160405180910390a3806000806101000a81548173ffffffffffffffffffffffffffffffffffffffff021916908373ffffffffffffffffffffffffffffffffffffffff16021790555050565b608060405190810160405280600073ffffffffffffffffffffffffffffffffffffffff1681526020016060815260200160608152602001600081525090565b828054600181600116156101000203166002900490600052602060002090601f016020900481019282601f10610ba357805160ff1916838001178555610bd1565b82800160010185558215610bd1579182015b82811115610bd0578251825591602001919060010190610bb5565b5b509050610bde9190610be2565b5090565b610c0491905b80821115610c00576000816000905550600101610be8565b5090565b90565b6000610c13823561103b565b905092915050565b600082601f8301121515610c2e57600080fd5b8135610c41610c3c82610fa9565b610f7c565b91508082526020830160208301858383011115610c5d57600080fd5b610c6883828461105b565b50505092915050565b600060208284031215610c8357600080fd5b6000610c9184828501610c07565b91505092915050565b60008060408385031215610cad57600080fd5b600083013567ffffffffffffffff811115610cc757600080fd5b610cd385828601610c1b565b925050602083013567ffffffffffffffff811115610cf057600080fd5b610cfc85828601610c1b565b9150509250929050565b610d0f81611005565b82525050565b6000610d2082610fe2565b80845260208401935083602082028501610d3985610fd5565b60005b84811015610d72578383038852610d54838351610e69565b9250610d5f82610ff8565b9150602088019750600181019050610d3c565b508196508694505050505092915050565b610d8c81611025565b82525050565b6000610d9d82610fed565b808452610db181602086016020860161106a565b610dba8161109d565b602085010191505092915050565b6000601282527f4e6f646520646f65736e277420657869737400000000000000000000000000006020830152604082019050919050565b6000608083016000830151610e176000860182610d06565b5060208301518482036020860152610e2f8282610d92565b91505060408301518482036040860152610e498282610d92565b9150506060830151610e5e6060860182610ed3565b508091505092915050565b6000608083016000830151610e816000860182610d06565b5060208301518482036020860152610e998282610d92565b91505060408301518482036040860152610eb38282610d92565b9150506060830151610ec86060860182610ed3565b508091505092915050565b610edc81611031565b82525050565b6000602082019050610ef76000830184610d06565b92915050565b60006020820190508181036000830152610f178184610d15565b905092915050565b6000602082019050610f346000830184610d83565b92915050565b60006020820190508181036000830152610f5381610dc8565b9050919050565b60006020820190508181036000830152610f748184610dff565b905092915050565b6000604051905081810181811067ffffffffffffffff82111715610f9f57600080fd5b8060405250919050565b600067ffffffffffffffff821115610fc057600080fd5b601f19601f8301169050602081019050919050565b6000602082019050919050565b600081519050919050565b600081519050919050565b6000602082019050919050565b600073ffffffffffffffffffffffffffffffffffffffff82169050919050565b60008115159050919050565b6000819050919050565b600073ffffffffffffffffffffffffffffffffffffffff82169050919050565b82818337600083830152505050565b60005b8381101561108857808201518184015260208101905061106d565b83811115611097576000848401525b50505050565b6000601f19601f83011690509190505600a265627a7a7230582018f9110821eb5316f54c5b9ded8cf20f3ca031c3297d12c3bed6ffeb4e93d8066c6578706572696d656e74616cf50037",
  "source": "pragma solidity ^ 0.4.24;\r\npragma experimental ABIEncoderV2;\r\n\r\nimport \"openzeppelin-solidity/contracts/ownership/Ownable.sol\";\r\n\r\ncontract NodeRegister is Ownable {\r\n\r\n    struct Node {\r\n        address id;\r\n        string name;\r\n        string url;\r\n        uint256 registrationTime;\r\n    }\r\n\r\n    mapping(address => Node) internal nodes;\r\n    Node[] internal nodesList;\r\n\r\n    event NodeRegistered(Node node);\r\n    event NodeRevoked(Node node);\r\n\r\n    constructor() public {\r\n    }\r\n\r\n    function whitelistNode(address _id) public onlyOwner {\r\n        \r\n    }\r\n\r\n    function registerNode(string _name, string _url) public onlyOwner {\r\n        address id = msg.sender;\r\n        Node memory node = Node(id, _name, _url, now);\r\n        nodes[id] = node;\r\n        nodesList.push(node);        \r\n    }\r\n\r\n    function getNode(address _id) public view returns(Node) {\r\n        require(nodes[_id].id != _id, \"Node doesn't exist\");\r\n        return nodes[_id];\r\n    }\r\n\r\n    function getActiveNodes() public view returns(Node[]) {\r\n        return nodesList;\r\n    }\r\n}",
  "sourcePath": "C:\\Projects\\mimirium\\protocol\\mimirium-contracts\\contracts\\NodeRegister.sol",
  "compiler": {
    "name": "solc",
    "version": "0.4.24+commit.e67f0147.Emscripten.clang"
  },
  "schemaVersion": "2.0.1",
  "updatedAt": "2018-11-19T09:59:17.954Z"
}