{
  "contractName": "Surveys",
  "abi": [
    {
      "constant": true,
      "inputs": [],
      "name": "owner",
      "outputs": [
        {
          "name": "",
          "type": "address"
        }
      ],
      "payable": false,
      "stateMutability": "view",
      "type": "function"
    },
    {
      "inputs": [],
      "payable": false,
      "stateMutability": "nonpayable",
      "type": "constructor"
    },
    {
      "anonymous": false,
      "inputs": [
        {
          "indexed": false,
          "name": "idHash",
          "type": "bytes32"
        },
        {
          "indexed": false,
          "name": "id",
          "type": "string"
        }
      ],
      "name": "SurveyAdded",
      "type": "event"
    },
    {
      "anonymous": false,
      "inputs": [
        {
          "indexed": false,
          "name": "idHash",
          "type": "bytes32"
        },
        {
          "indexed": false,
          "name": "id",
          "type": "string"
        }
      ],
      "name": "SurveyExpired",
      "type": "event"
    },
    {
      "constant": false,
      "inputs": [
        {
          "name": "_id",
          "type": "string"
        },
        {
          "name": "_minRespondents",
          "type": "uint256"
        },
        {
          "name": "_maxRespondents",
          "type": "uint256"
        },
        {
          "name": "_endTime",
          "type": "uint256"
        }
      ],
      "name": "addSurvey",
      "outputs": [],
      "payable": true,
      "stateMutability": "payable",
      "type": "function"
    },
    {
      "constant": true,
      "inputs": [],
      "name": "getAllSurveys",
      "outputs": [
        {
          "name": "",
          "type": "bytes32[]"
        }
      ],
      "payable": false,
      "stateMutability": "view",
      "type": "function"
    },
    {
      "constant": true,
      "inputs": [
        {
          "name": "_idHash",
          "type": "bytes32"
        }
      ],
      "name": "getSurvey",
      "outputs": [
        {
          "name": "",
          "type": "string"
        },
        {
          "name": "",
          "type": "uint256"
        },
        {
          "name": "",
          "type": "uint256"
        },
        {
          "name": "",
          "type": "uint256"
        },
        {
          "name": "",
          "type": "uint256"
        },
        {
          "name": "",
          "type": "uint256"
        }
      ],
      "payable": false,
      "stateMutability": "view",
      "type": "function"
    }
  ],
  "bytecode": "0x608060405234801561001057600080fd5b5033600260006101000a81548173ffffffffffffffffffffffffffffffffffffffff021916908373ffffffffffffffffffffffffffffffffffffffff160217905550610a88806100616000396000f300608060405260043610610062576000357c0100000000000000000000000000000000000000000000000000000000900463ffffffff16806310c3fcd3146100675780635548229a146100e15780637a1bc375146101ae5780638da5cb5b1461021a575b600080fd5b6100df600480360381019080803590602001908201803590602001908080601f0160208091040260200160405190810160405280939291908181526020018383808284378201915050505050509192919290803590602001909291908035906020019092919080359060200190929190505050610271565b005b3480156100ed57600080fd5b5061011060048036038101908080356000191690602001909291905050506107b8565b6040518080602001878152602001868152602001858152602001848152602001838152602001828103825288818151815260200191508051906020019080838360005b8381101561016e578082015181840152602081019050610153565b50505050905090810190601f16801561019b5780820380516001836020036101000a031916815260200191505b5097505050505050505060405180910390f35b3480156101ba57600080fd5b506101c36108fe565b6040518080602001828103825283818151815260200191508051906020019060200280838360005b838110156102065780820151818401526020810190506101eb565b505050509050019250505060405180910390f35b34801561022657600080fd5b5061022f61095a565b604051808273ffffffffffffffffffffffffffffffffffffffff1673ffffffffffffffffffffffffffffffffffffffff16815260200191505060405180910390f35b600061027b610980565b600260009054906101000a900473ffffffffffffffffffffffffffffffffffffffff1673ffffffffffffffffffffffffffffffffffffffff163373ffffffffffffffffffffffffffffffffffffffff16141515610340576040517f08c379a00000000000000000000000000000000000000000000000000000000081526004018080602001828103825260208152602001807f4f6e6c79206f776e657220697320616c6c6f77656420746f20646f207468617481525060200191505060405180910390fd5b6000341115156103b8576040517f08c379a00000000000000000000000000000000000000000000000000000000081526004018080602001828103825260198152602001807f596f75206e65656420746f2070757420736f6d6520636173680000000000000081525060200191505060405180910390fd5b848410151515610456576040517f08c379a000000000000000000000000000000000000000000000000000000000815260040180806020018281038252602e8152602001807f4d617820726573706f6e64656e7473206d75737420626520626967676572206f81526020017f7220657175616c20746f206d696e00000000000000000000000000000000000081525060400191505060405180910390fd5b42831115156104cd576040517f08c379a000000000000000000000000000000000000000000000000000000000815260040180806020018281038252600c8152602001807f496e76616c69642074696d65000000000000000000000000000000000000000081525060200191505060405180910390fd5b856040516020018082805190602001908083835b60208310151561050657805182526020820191506020810190506020830392506104e1565b6001836020036101000a0380198251168184511680821785525050505050509050019150506040516020818303038152906040526040518082805190602001908083835b60208310151561056f578051825260208201915060208101905060208303925061054a565b6001836020036101000a03801982511681845116808217855250505050505090500191505060405180910390209150600060016000846000191660001916815260200190815260200160002060040154141515610634576040517f08c379a00000000000000000000000000000000000000000000000000000000081526004018080602001828103825260158152602001807f53757276657920616c726561647920657869737473000000000000000000000081525060200191505060405180910390fd5b60c06040519081016040528087815260200186815260200185815260200134815260200142815260200184815250905080600160008460001916600019168152602001908152602001600020600082015181600001908051906020019061069c9291906109b7565b506020820151816001015560408201518160020155606082015181600301556080820151816004015560a0820151816005015590505060008290806001815401808255809150509060018203906000526020600020016000909192909190915090600019169055507fce2ec4a28ecd057a2104fb2fbb50b31a236448b60941a42e22f5006236c05d14828760405180836000191660001916815260200180602001828103825283818151815260200191508051906020019080838360005b8381101561077557808201518184015260208101905061075a565b50505050905090810190601f1680156107a25780820380516001836020036101000a031916815260200191505b50935050505060405180910390a1505050505050565b606060008060008060006107ca610980565b60016000896000191660001916815260200190815260200160002060c06040519081016040529081600082018054600181600116156101000203166002900480601f01602080910402602001604051908101604052809291908181526020018280546001816001161561010002031660029004801561088a5780601f1061085f5761010080835404028352916020019161088a565b820191906000526020600020905b81548152906001019060200180831161086d57829003601f168201915b50505050508152602001600182015481526020016002820154815260200160038201548152602001600482015481526020016005820154815250509050806000015181602001518260400151836060015184608001518560a001518595509650965096509650965096505091939550919395565b6060600080548060200260200160405190810160405280929190818152602001828054801561095057602002820191906000526020600020905b81546000191681526020019060010190808311610938575b5050505050905090565b600260009054906101000a900473ffffffffffffffffffffffffffffffffffffffff1681565b60c0604051908101604052806060815260200160008152602001600081526020016000815260200160008152602001600081525090565b828054600181600116156101000203166002900490600052602060002090601f016020900481019282601f106109f857805160ff1916838001178555610a26565b82800160010185558215610a26579182015b82811115610a25578251825591602001919060010190610a0a565b5b509050610a339190610a37565b5090565b610a5991905b80821115610a55576000816000905550600101610a3d565b5090565b905600a165627a7a72305820fe8f9eccaf1f08780cfab338f8516656182da19daa4937da69e5bc4b000f82650029",
  "source": "pragma solidity ^ 0.4.24;\r\n\r\ncontract Surveys {\r\n\r\n    struct Survey {\r\n        string id;\r\n        uint256 minRespondents;\r\n        uint256 maxRespondents;\r\n        uint256 budget;\r\n        uint256 startTime;\r\n        uint256 endTime;\r\n    }\r\n    bytes32[] internal surveyList;\r\n    mapping(bytes32 => Survey) internal surveyMap;\r\n    address public owner;\r\n\r\n    event SurveyAdded(bytes32 idHash, string id);\r\n    event SurveyExpired(bytes32 idHash, string id);\r\n\r\n    modifier onlyOwner() {\r\n        require(msg.sender == owner, \"Only owner is allowed to do that\");\r\n        _;\r\n    }\r\n\r\n    constructor() public {\r\n        owner = msg.sender;\r\n    }\r\n\r\n    function addSurvey(\r\n        string _id,\r\n        uint256 _minRespondents,\r\n        uint256 _maxRespondents,\r\n        uint256 _endTime) public payable onlyOwner {\r\n\r\n        require(msg.value > 0, \"You need to put some cash\");\r\n        require(_maxRespondents >= _minRespondents, \"Max respondents must be bigger or equal to min\");\r\n        require(_endTime > block.timestamp, \"Invalid time\");\r\n\r\n        bytes32 idHash = keccak256(abi.encodePacked(_id));\r\n        require(surveyMap[idHash].startTime == 0, \"Survey already exists\");\r\n\r\n        Survey memory s = Survey(\r\n            _id,\r\n            _minRespondents,\r\n            _maxRespondents,\r\n            msg.value,\r\n            block.timestamp,\r\n            _endTime\r\n        );\r\n        surveyMap[idHash] = s;\r\n        surveyList.push(idHash);\r\n        emit SurveyAdded(idHash, _id);\r\n    }\r\n\r\n    function getAllSurveys() public view returns(bytes32[]) {\r\n        return surveyList;\r\n    }\r\n\r\n    function getSurvey(bytes32 _idHash) public view returns (string, uint256, uint256, uint256, uint256, uint256) {\r\n        Survey memory s = surveyMap[_idHash];\r\n        return (s.id, s.minRespondents, s.maxRespondents, s.budget, s.startTime, s.endTime);\r\n    }\r\n\r\n    function cleanSurveys() internal {\r\n        for (uint256 i = 0; i < surveyList.length; i ++) {\r\n            bytes32 idHash = surveyList[i];\r\n            Survey memory s = surveyMap[idHash];\r\n            if (s.endTime <= block.timestamp) {\r\n                emit SurveyExpired(idHash, s.id);\r\n                delete surveyMap[idHash];\r\n                delete surveyList[i];\r\n                \r\n            }\r\n        }\r\n    }\r\n}\r\n",
  "sourcePath": "C:\\Projects\\mimirium\\protocol\\mimirium-contracts\\contracts\\Surveys.sol",
  "compiler": {
    "name": "solc",
    "version": "0.4.24+commit.e67f0147.Emscripten.clang"
  },
  "schemaVersion": "2.0.1",
  "updatedAt": "2018-11-12T15:59:12.569Z"
}